:020000040800F2
:10000000E0060020CD010008A7170008E313000850
:10001000A5170008D30200084D1C000800000000CE
:10002000000000000000000000000000C51B0008E8
:10003000D502000800000000A1190008C71B000835
:10004000E7010008E7010008E7010008E51A0008D9
:10005000E7010008E7010008E7010008E7010008E0
:10006000E7010008E7010008E7010008E7010008D0
:10007000E7010008E7010008E7010008E7010008C0
:10008000E7010008E7010008E7010008E7010008B0
:10009000E7010008E7010008E7010008E7010008A0
:1000A000E7010008E7010008E7010008E701000890
:1000B000E7010008E7010008E7010008E701000880
:1000C000E7010008E7010008E7010008E701000870
:1000D000E7010008E7010008E7010008E701000860
:1000E000E7010008E7010008E7010008E701000850
:1000F000E7010008E7010008E7010008E701000840
:10010000E7010008E7010008E7010008E70100082F
:10011000E7010008E7010008E7010008E70100081F
:10012000E7010008E7010008E7010008E70100080F
:1001300000F002F800F03AF80AA090E8000C8244BF
:100140008344AAF10107DA4501D100F02FF8AFF29C
:10015000090EBAE80F0013F0010F18BFFB1A43F0A5
:1001600001031847041E0000241E0000103A24BF9B
:1001700078C878C1FAD8520724BF30C830C144BF0C
:1001800004680C607047000000230024002500264E
:10019000103A28BF78C1FBD8520728BF30C148BFEA
:1001A0000B6070471FB51FBD10B510BD00F058F8AB
:1001B0001146FFF7F7FF01F05BFD00F076F803B49E
:1001C000FFF7F2FF03BC00F07DF80000094880470C
:1001D00009480047FEE7FEE7FEE7FEE7FEE7FEE729
:1001E000FEE7FEE7FEE7FEE704480549054A064B41
:1001F000704700004B1C000831010008E00000209F
:10020000E0060020E0020020E00200204FF00002A3
:1002100000B5134694469646203922BFA0E80C50FC
:10022000A0E80C50B1F12001BFF4F7AF090728BFD7
:10023000A0E80C5048BF0CC05DF804EB890028BF53
:1002400040F8042B08BF704748BF20F8022B11F07C
:10025000804F18BF00F8012B7047704770477047F8
:10026000754600F02BF8AE4605006946534620F06F
:100270000700854618B020B5FFF7B6FFBDE820405F
:100280004FF000064FF000074FF000084FF0000B52
:1002900021F00701AC46ACE8C009ACE8C009ACE805
:1002A000C009ACE8C0098D46704710B50446AFF3ED
:1002B00000802046BDE81040FFF781BF004870472E
:1002C0008000002001491820ABBEFEE72600020096
:1002D0007047FEE7704772B6FEE7000070B504464F
:1002E00000F00AF90546601C02D004480078044476
:1002F00000F002F9401BA042FAD370BD08000020B4
:100300002DE9F84FDFF8C8910024A9F1040B23462A
:100310000F2709F1040AABF1040ED1E00125A54035
:1003200006EA0502AA4276D1DFF8A8C14E68A6EB1C
:100330000C0866452BD00DDC032E34D005DC36B31B
:10034000012E19D0022E2FD11BE0112E16D0122E05
:100350002AD119E0B8F5881F19D006DCB8F5803F1E
:1003600015D0B8F5801F1FD111E0B8F5001F0ED0D1
:10037000B8F5041F18D10AE0CB6815E0CB681B1D47
:1003800012E0CB6808330FE0CB680C330CE08B68CD
:100390002BB1012B4FF0080303D0456104E0042387
:1003A00002E0056100E00023FF2A01D8064601E0D3
:1003B00000F104064FEA840501D9A5F12005D6F81D
:1003C000008007FA05FC28EA0C0803FA05F548EA5C
:1003D0000508C6F800804D68ED0070D53E4DAE6949
:1003E00046F00106AE61AD6924F0030605F0010593
:1003F00000953A4D06EB050CDCF80850A607360FC1
:1004000007FA06F825EA0805DFF8D480404503D14D
:100410004FF0000825E052E0DFF8C880404502D1E7
:100420004FF001081DE0DFF8C080404502D14FF0D9
:10043000020816E0DFF8B480404502D14FF003080F
:100440000FE0DFF8AC80404502D14FF0040808E02F
:10045000DFF8A080404502D14FF0050801E04FF0E1
:10046000060808FA06F848EA0508CCF808804D683E
:10047000D9F80060ED024D4601D5164300E09643E1
:100480002E604D68DAF80060AD02554601D516437E
:1004900000E096432E604D68DBF80060AD035D46DA
:1004A00001D5164300E096432E604D68DEF80060EB
:1004B000ED03754601D5164300E096432E60641C9B
:1004C0000A681646E2407FF429AFBDE8F88F0000C5
:1004D000080401400000111000100240000001401B
:1004E00000080140000C01400010014000140140D0
:1004F00000180140001C014001488068704700005E
:100500000800002070B5040025D094F83D000025B7
:1005100020B984F83C50204600F04EF9242084F89D
:100520003D002068016821F0010101602068016838
:1005300041F4004101602068016821F4004101603C
:1005400000F06EFB4D4A6168914201D84C4900E0D1
:100550004C49884201D2012070BD4B492368B0FB51
:10056000F1F15E6826F03F060E435E6063689342D9
:1005700006D94FF4967359434FF47A73B1FBF3F1F4
:100580002368491C1E6A26F03F06314319626168E0
:10059000914210D84900401EB0FBF1F2521CC2F348
:1005A0000B02042A01D2042022E0B0FBF1F0401C2F
:1005B000C0F30B001CE0A268F2B301EBC10303EB34
:1005C0000116431EB3FBF6F35B1C43F480431B058B
:1005D00049D092B301EBC10202EB0111401EB0FB06
:1005E000F1F0401CC0F30B0040F4804040F40040A8
:1005F0002168CA694CF6FF739A431043C861D4E975
:10060000071001432068026822F0C0021143016014
:10061000D4E9030101432068826848F2FF339A431A
:1006200011438160D4E9050108432168CA6822F0BA
:10063000FF021043C86001E00EE016E02068016888
:1006400041F0010101602564202084F83D0025630C
:1006500084F83E50002070BD01EB4106431EB3FB01
:10066000F6F35B1CB3E70120C2E701EB4101401E3A
:10067000B0FBF1F0401CC0F30B00B7E7A08601000F
:1006800080841E0000093D0040420F002DE9F84F14
:100690001F4690468A460446DDF82890FFF72CFF57
:1006A000054694F83D0020287FD1192301224049B6
:1006B0002046009500F028FF002876D194F83C00F1
:1006C000012872D0012084F83C0020680168C90725
:1006D00003D1016841F0010101602068016821F443
:1006E00000610160212084F83D00102084F83E0064
:1006F00000262664C4F824806785608D20852D48F7
:10070000E0622B464A465146204600F083FE90B9EF
:10071000206841698069009036E02A4649462046B3
:1007200000F098FF50B1206C042804D120680168C3
:1007300041F4007101600120BDE8F88F606A216812
:1007400000780861606A401C6062618D491E6185A5
:10075000218D491E89B2218522685369DB435B07DD
:100760000BD451B100781061606A401C6062608DEA
:10077000401E6085208D401E20852A464946204621
:1007800000F096FE0028CED1208D0028C5D154F867
:100790003D0B016841F400710160202004F81E093E
:1007A000E67766770020C7E7FFE70220C4E700008E
:1007B000020010000000FFFF10B586B0002100917C
:1007C00001910291039100680F4988421AD10F4CA0
:1007D000A06940F00800A061A069694600F0080027
:1007E0000490C0200090122001900320039008483C
:1007F000FFF786FDE06940F40010E061E06900F475
:100800000010049006B010BD0054004000100240DB
:10081000000C0140024881680278114481607047F1
:1008200008000020074810B5016841F01001016080
:10083000032000F075F80F2000F006F800F024F80F
:10084000002010BD0020024070B50D4D04464FF44D
:100850007A712878B1FBF0F00A490968B1FBF0F031
:1008600000F0ABFD48B9102C07D200222146501EE3
:1008700000F036F800206C6070BD012070BD0000F3
:1008800008000020140000200C4808B5816941F0E0
:1008900001018161816901F001010091C16941F0AB
:1008A0008051C161C06900F08050009004484168E7
:1008B00021F0E06141F00071416008BD001002408C
:1008C00000000140002809DB00F01F0201219140D7
:1008D0004009800000F1E020C0F8001170470000DE
:1008E000F0B40E4B1B680C46C3F30223C3F107059B
:1008F000042D00D90425191D072901D2002300E089
:10090000DB1E012606FA05F1491E214099409E4052
:10091000761E16403143F0BC01F099B90CED00E0B1
:10092000064900F0070208684FF6FF03184040EA46
:100930000220034A10430860704700000CED00E0FD
:100940000000FA05014901200862704700000E42CC
:1009500010B501460020284C04292FD00BDC0129BA
:1009600030D0022929D100F06BF96168C1F38131DF
:10097000491C49001FE0082920D010291DD16168B9
:100980002268D20119D51D48C1F38342C903805C96
:100990000AD56168194AC1F34041921E515C184A58
:1009A000B2FBF1F1484301E016494843616849024E
:1009B00003D440000321B0FBF1F010BDBDE81040AE
:1009C00000F04EB9226AC2F30121012903D1920736
:1009D00001D5C80310BD022905D1626A920702D56C
:1009E00049F6404010BD0329FCD121688903F9D59F
:1009F0004FF2244010BD000000100240041D00080A
:100A000000127A0000093D002DE9F8430546007800
:100A1000354CC00754D0E0690026C00008D4E06916
:100A200040F08050E061E069012600F080500090C5
:100A30002E480168C90512D40168804641F48071CE
:100A40000160FFF759FD074605E000BFFFF754FDC1
:100A5000C01B642823D8D8F80000C005F6D5206A4A
:100A600010F4407021D0A98801F4407181421CD05B
:100A7000206A1F49012220F440700A6000220A60A7
:100A80002062C00711D0FFF737FD074641F28838D2
:100A900008E000BFFFF730FDC11B414502D903202C
:100AA000BDE8F883206A8007F4D5206A696820F4DD
:100AB0004070084320621EB1E06920F08050E06180
:100AC0002878800705D56068A96820F4404008436D
:100AD00060602878C00605D56068696920F48000E8
:100AE000084360600020DBE7001002400070004017
:100AF000400442422DE9F0470F46050061D0434EC5
:100B0000306800F00700B84209D2306820F00700D2
:100B100038433060306800F00700B84251D128688F
:100B20003B4C810712D5400703D5606840F4E06074
:100B300060602878000703D5606840F4605060600A
:100B40006068A96820F0F000084360602878C0075A
:100B500028D06868012810D02168022810D08907A1
:100B600000292EDA616821F0030101436160FFF77B
:100B7000C3FC804641F288390DE021688903EFE724
:100B80008901EDE7FFF7B8FCA0EB0801494502D960
:100B90000320BDE8F0876068696800F00C00B0EBE6
:100BA000810FEFD1306800F00700B8420BD93068F0
:100BB00020F0070038433060306800F00700B8428A
:100BC00001D00120E5E72878400705D56068E9688D
:100BD00020F4E060084360602878000706D560686C
:100BE000296920F4605040EAC100606000F038F8E4
:100BF0006168084AC1F30311515CC84006490860A6
:100C000006480068FFF720FE0020C2E700200240EF
:100C100000100240141D0008140000200C000020E9
:100C20000448054900684968044AC1F30221515C3F
:100C3000C84070471400002000100240241D000826
:100C40000448054900684968044AC1F3C221515C5F
:100C5000C84070471400002000100240241D000806
:100C60000E4A51680E4801F00C03042B11D0082BDA
:100C70000FD10C48C1F38343C903C05C0AD5516846
:100C8000084AC1F34041921E515C054A5043B0FBF3
:100C9000F1F07047044948437047000000100240DB
:100CA00000127A00F21C000800093D002DE9F84FFF
:100CB000040070D02078C04DC00749D06868C0F3E8
:100CC0008100012807D06868C0F38100022809D19B
:100CD0006868C00306D52868800339D56068002895
:100CE000E7D035E06068B0F5803F0BD010B1B0F5CB
:100CF000A02F11D0286820F480302860286820F4C4
:100D0000802002E0286840F480302860606890B15C
:100D1000FFF7F2FB06460AE0286840F480202860CE
:100D2000F0E700BFFFF7E8FB801B642873D8286852
:100D30008003F7D50CE0FFF7DFFB064605E000BFB8
:100D4000FFF7DAFB801B6428F0D828688003F7D40B
:100D500020789A4E80074FF001094FF0000839D5EE
:100D6000686810F00C0F07D06868C0F38100022893
:100D700009D16868C00306D42868800714D52069A3
:100D8000012808D110E02069B0B1C6F80090FFF743
:100D9000B3FB074605E00AE1FFF7AEFBC01B0228E4
:100DA000C4D828688007F7D52868616920F0F80062
:100DB00040EAC10028600DE0C6F80080FFF79CFB08
:100DC000074604E0FFF798FBC01B022823D82868D9
:100DD0008007F7D4207800072CD57948A169D9B1CC
:100DE000C0F80090FFF788FB074604E0FFF784FB9C
:100DF000C01B02280FD8686A8007F7D571484FF4E6
:100E0000FA510068B0FBF1F0009000BF0098411E5D
:100E10000091FAD20EE080E0C0F80080FFF76CFB92
:100E2000074604E0FFF768FBC01B022875D8686A14
:100E30008007F7D42078400760D5E8690027C00014
:100E400008D4E86940F08050E861E869012700F0C3
:100E5000805000905C480168C90513D4016883463E
:100E600041F480710160FFF747FB824606E000BF56
:100E7000FFF742FBA0EB0A0064284ED8DBF8000025
:100E8000C005F5D5E06801280AD008B1052813D0BF
:100E9000286A20F001002862286A20F0040002E09D
:100EA000286A40F001002862E06841F2883B98B16E
:100EB000FFF722FB82460BE0286A40F0040028621C
:100EC000EEE700BFFFF718FBA0EB0A0159455AD81F
:100ED000286A8007F6D50CE0FFF70EFB824605E096
:100EE000FFF70AFBA0EB0A0159454CD8286A800796
:100EF000F6D41FB1E86920F08050E861E06988B35A
:100F00006968C1F38101022944D00228C6F86080D3
:100F100004D0FFF7F1FA044638E034E0FFF7ECFACA
:100F2000074604E0FFF7E8FAC01B02282BD8286820
:100F30008001F7D4206AB0F5803F05D16868A168C8
:100F400020F4003008436860D4E908010843696868
:100F500021F4741108436860C6F86090FFF7CCFA7A
:100F6000044606E025E000BFFFF7C6FA001B022892
:100F700009D828688001F7D51BE000BFFFF7BCFA4D
:100F8000001B022802D90320BDE8F88F28688001E1
:100F9000F4D40EE00128F7D06868226A00F48031AA
:100FA000914204D1616A00F47010884201D001209E
:100FB000EAE70020E8E7000000100240000042429B
:100FC00080044242140000200070004070477047C7
:100FD00010B5044600680168C90717D04168C90701
:100FE00014D040684007204607D5FFF7F0FF21687E
:100FF0006FF004004860042002E0FFF7E7FF0120E3
:1010000060742068416821F00101416010BDF8B5AD
:1010100005004FF0000016460C46009006D02CB19B
:1010200000226946284600F019F808B10120F8BDF1
:10103000287B2070E87BE070697B6170A97BA170E0
:1010400056B100F0B7FCE070607800F0B3FC60705F
:10105000A07800F0AFFCA0700020F8BD2DE9F047AB
:1010600091460C465FEA00084AD084B3D8F80000E5
:101070004068400744D4404600F041FD4FF46162AF
:101080000546B0FBF2F1B0FBF2F302FB13503C2338
:10109000B0FBF3F0B5FBF2F6607002FB1650B0FB4C
:1010A000F3F203FB1200A070182931D31820B1FB12
:1010B000F0F7B1FBF0F200FB12102070404600F098
:1010C00017FD411C04D0A84202D9461B02E017E0DC
:1010D0004FF0FF36A7EB071000EB4000C0EB00100D
:1010E00005EBC0152946404600F058FD40B9701C7C
:1010F00001D0711900E03146404600F03BFD10B1CF
:101100000120BDE8F0873946404600F05EFC00E073
:101110002170B9F1000F0BD0207800F04BFC20704B
:10112000607800F047FC6070A07800F043FCA0708D
:101130000020E6E770B5040003D0607C002610B103
:1011400005E0012070BD2674204600F03DF8022025
:101150006074204600F014F9042550BB204600F0CE
:101160008BFC30BB2068416821F007014160A0681A
:1011700020B11448016821F0010101601148001FED
:101180000168A26821F46071114301606068411C2C
:1011900004D10120FFF7DCFB58B1401E2268C0F3E8
:1011A00003419160216880B2C860204600F07EFC57
:1011B00008B16574C5E7E67301206073A0736074BD
:1011C000002070BD306C004008B500680D498842B1
:1011D00017D1FFF7B7FB0C48C16941F00061C1614D
:1011E000C0690A4900F000600090012008600022F8
:1011F00011460320FFF774FBBDE808400320FFF70A
:1012000061BB08BD00280040001002403C0442427F
:101210002DE9F0410D4604003BD0C5B3207C0128E8
:101220003AD04FF0010884F8108002206074E8780A
:1012300072B300F0B6FBE073687800F0B2FB607345
:10124000A87800F0AEFBA073C2B2617BE07B00F037
:1012500066FC20732870204600F051FC4FF4616159
:10126000B0FBF1F1002518292DD91822B1FBF2F1BC
:10127000A1EB011101EB4101C1EB011100EBC11622
:101280003146204600F08AFC0427C8B90BE000E094
:1012900004E00120BDE8F0810220FBE7E0736878FC
:1012A0006073A878CFE7204600F022FC411C0AD0EA
:1012B000B04208D206490144204600F05BFC10B160
:1012C00067742574E5E784F8118025740020E1E750
:1012D000805101002DE9F0410D46040024D01DB3DA
:1012E000207C012823D04FF0010884F810800220D0
:1012F00060742878EAB100F054FB4FF4616100FBA0
:1013000001F6687800F04DFBC0EB001006EB80069C
:10131000A87800F046FB35182946204600F03EFC30
:101320000026042710BB0FE00120BDE8F081022059
:10133000FBE74FF4616148436978C1EB011100EBB1
:101340008100A9784518E7E72068416821F0050188
:101350004160204600F0CCFB411C0AD0A84208D2D4
:1013600006490144204600F005FC10B1677426745C
:10137000DAE784F8118026740020D6E78051010056
:1013800070B504000AD02068416821F0080141606E
:10139000FFF7B2F805464FF47A7608E0012070BDF9
:1013A000FFF7AAF8401BB04201D9032070BD2068A6
:1013B00040680007F4D5002070BD10B5401EB0F1A4
:1013C000807F01D3012010BD4FF0E02460610F2128
:1013D000601700F03CFC0020A06107202061002085
:1013E00010BDFEE701684A69D24352050FD46FF47D
:1013F00080624A61002140F8301F202242738173CD
:10140000026942F00402026101730120704700206A
:1014100070470000F8B50446C06A1E460D461746E0
:10142000082807D0012805D010F5803F02D0206B96
:10143000122804D12068016841F4807101601346CC
:1014400000224FF001112046009600F05DF840B1F7
:1014500020680068C00502D54FF4007020640320A6
:10146000F8BD2069B0F5804F0ED00620216800EA53
:10147000D51040F0F000086133463A460B4920464B
:1014800000F08AF878B902E005F0FE0000E0E8B26A
:1014900021680861054933463A46891F204600F015
:1014A0007BF80028DCD00120F8BD00000800010016
:1014B00070B516460D4604461EE02046FFF792FF23
:1014C00008B1012070BD681C16D0FFF715F8801B0D
:1014D000A84200D885B920684069C04340070BD5B1
:1014E000002044F8300F20216173A073216941F07E
:1014F000200121612073E4E720684069C043400770
:10150000DBD4002070BD00002DE9F0479846174657
:101510000D460446C1F30746DDF820902AE000BFDF
:10152000B8F1FF3F26D0FEF7E7FFA0EB09014145E8
:1015300002D8B8F1000F1DD12068012E16D08069A5
:1015400025EA00000004000C12D00020B84211D19E
:10155000002044F8300F20216173A073216941F00D
:101560002001216120730120BDE8F0874069E7E791
:101570000120EBE72068012E0AD0806925EA0000EF
:101580000004000C06D00020B842C9D00020EBE7D0
:101590004069F3E70120F7E72DE9F0479846164642
:1015A0000D4604464FF000094FF0200AC1F30747EB
:1015B00023E020684069C043400515D420680168D5
:1015C00041F40071016021686FF480604861C4F8E3
:1015D000309084F83DA084F83E90216C41F00401E5
:1015E000216484F83C9021E0701C06D0FEF784FF53
:1015F000A0EB0800B04203D816B1012F1FD021E0A4
:101600002068012F15D0806925EA00000004000C35
:1016100018D000BF44F8309F84F80DA084F80E90D5
:10162000216941F02001216184F80C900120BDE87E
:10163000F087406925EA00000004000CEAD1206828
:10164000406901E02068806925EA00000004000C80
:10165000AFD1ECE770B516460D4604461EE02046B5
:10166000FFF7C0FE08B1012070BD681C16D0FEF760
:1016700043FF801BA84200D885B920684069C04359
:1016800000060BD5002044F8300F20216173A073B1
:10169000216941F0200121612073E4E7206840695D
:1016A000C0430006DBD4002070BD0000114808B51F
:1016B000816941F010018161816901F0100100919F
:1016C000816941F020018161816901F0200100916F
:1016D000816941F004018161816901F00401009197
:1016E000816941F008018161806900F00800009083
:1016F00008BD0000001002400D4810B50B49016004
:101700000C494FF48042C0E901120021C0E90312E4
:1017100041618161C1610162FEF7F4FE002803D0DE
:10172000BDE81040FEF7D7BD10BD000000540040DA
:1017300018000020801A06001CB5002418480194E7
:10174000164900940160611E41604FF48071816010
:10175000FFF7F0FC08B1FEF7BEFD8DF804408DF8F0
:1017600005408DF80640012201A90D48FFF7B2FDA2
:1017700008B1FEF7B0FD01208DF800008DF80100E2
:101780008DF8020002468DF8034069460448FFF7D1
:101790003FFD002801D0FEF79EFD1CBD0028004043
:1017A0006C000020FEE7FEE770B5002404F1B000F5
:1017B000C0B200F0D1F8002000F0CEF8102000F008
:1017C000CBF80025002000F0D7F86D1CEDB2802D7D
:1017D000F8D3641CE4B2082CE8D370BD10B58D209A
:1017E00000F0BAF8142000F0B7F8BDE81040AF20C0
:1017F00000F0B2B810B56420FEF770FDAE2000F026
:10180000ABF8D52000F0A8F8802000F0A5F8A820BB
:1018100000F0A2F83F2000F09FF8D32000F09CF8E1
:10182000002000F099F8402000F096F8A12000F088
:1018300093F8C82000F090F8DA2000F08DF812201C
:1018400000F08AF8812000F087F8CF2000F084F8BB
:10185000D92000F081F8F12000F07EF8DB2000F0C4
:101860007BF8302000F078F8A42000F075F8A6206E
:1018700000F072F8202000F06FF8002000F06CF803
:101880008D2000F069F8142000F066F8FFF78CFF57
:10189000BDE81040AF2000F05FB810B50446B0318D
:1018A000C8B200F059F8102040EA141000F054F8C3
:1018B00004F00F00BDE8104000F04EB870B51546BA
:1018C000203A5F2A00D32025FFF7E7FF074905EB01
:1018D0004500002401EB4005281910F8C00C00F069
:1018E0004BF8641CE4B2062CF6D370BD2C1D000826
:1018F0002DE9F04700261D469046894607463446A6
:1019000025E0281B401E0A22C1B2012000E05043FE
:10191000491EC9B2FBD2B8FBF0F00A21B0FBF1F2CC
:1019200001FB120026B9691E8C4201DA30B1012692
:101930003030C2B207EB8400C0B203E007EB840092
:10194000C0B220224946FFF7B9FF641CE4B2AC42A2
:10195000D7D3BDE8F08700001CB5002101918DF8B8
:10196000050064200090022301AA78210148FEF7B7
:101970008DFE1CBD180000201CB507A102230968BC
:1019800001918DF805006420009001AA7821034898
:10199000FEF77CFE1CBD0000400000001800002087
:1019A0007047010901EB810100F00F0000EB4100DD
:1019B000C0B27047002102E00A38C0B2491C0A28B0
:1019C000FAD2090740EA116070472DE9F041044658
:1019D0000025C07B627BA37B42E0012A16D0032A4C
:1019E00014D0052A12D0072A10D0082A0ED00A2AAD
:1019F0000CD00C2A0AD0042A10D0062A0ED0092AAC
:101A00000CD00B2A0AD0022A0DD028E01F2B0CD3B1
:101A10000C2A05D101221346401C20E01E2B04D3C2
:101A20000123521C1BE01C2B02D203F1010316E020
:101A300011D183B29E0710D16426B3FBF6F706FBE3
:101A4000173636B94FF4C876B3FBF6F706FB1733F3
:101A50001BB91D2303E01D2B01D1032201236D1CA3
:101A60008D42BAD3D1B2E0736173DAB2A27300F0DF
:101A700056F82073BDE8F08170B50446FEF73CFDD2
:101A800005464FF47A7606E0FEF736FD401BB0427D
:101A900001D9032070BD206840688006F4D5206815
:101AA000416841F010014160002070BD70B50446EE
:101AB0000068416821F010014160FEF71DFD0546F8
:101AC0004FF47A7607E000BFFEF716FD401BB042E8
:101AD00001D9032070BD206840688006F4D500203D
:101AE00070BD00000148FFF773BA00006C000020D1
:101AF0000168086A496A89B241EA00407047006893
:101B000081698AB2C1698BB2816989B28A4203D084
:101B1000C06961F31F40704743EA02407047F0B567
:101B20006424C1EBC1030927A500072603EB0113B9
:101B30000329B3FBF7F100F5FA60114401440AD21E
:101B4000401EB0FBF4F201EB9001B0FBF5F0891AF6
:101B50000844001D08E0B0FBF4F201EB9001B0FB7B
:101B6000F5F0891A0844801CB0FBF6F106FB110061
:101B7000C0B2F0BD70B50D4606460024FFF77CFFED
:101B800048B93168280C08623168A8B2486230460A
:101B9000FFF78CFF00B10124204670BD70B50D46E3
:101BA00006460024FFF768FF48B93168280C8861B1
:101BB0003168A8B2C8613046FFF778FF00B1012450
:101BC000204670BD7047FEF725BE70B596B028213F
:101BD0006846FEF71BFB14210AA8FEF717FB182125
:101BE0000FA8FEF713FB0124052000250090CDE986
:101BF00002544FF48030019002260494CDE907602E
:101C00004FF4E01009906846FFF750F808B172B63B
:101C1000FEE70F20CDE90A064FF48060CDE90C50B5
:101C200002210AA80E95FEF765FF08B172B6FEE71D
:101C30004FF48070CDE90F400FA8FEF7E5FE0028B5
:101C400001D072B6FEE716B070BD7047FEE7090717
:101C5000090E002804DB00F1E02080F80014704732
:101C600000F00F0000F1E02080F8141D7047000024
:101C7000FEF7D8FDFFF7A9FFFFF718FDFFF73CFDC2
:101C8000FFF75AFDFFF7B6FDFFF7A8FD164C4FF41E
:101C9000FA75002214491548FFF7E0F912490022AD
:101CA000C91C1248FFF7B3F9022322780521184610
:101CB000FFF71EFE3A2205210C20FFF7FFFD627898
:101CC000022305211620FFF713FE3A2205212020CA
:101CD000FFF7F4FDA278022305212A20FFF708FE72
:101CE0002846FEF7FBFAD4E7000000206C00002035
:101CF000010202030405060708090A0B0C0D0E0F6A
:101D00001010010202030405060708090A0B0C0D56
:101D10000E0F10100000000000000000010203047C
:101D2000060708090000000001020304000000008B
:101D3000000000005F000000000700070000147FA3
:101D4000147F1400242A7F2A1200231308646200DF
:101D5000364955225000000503000000001C2241B6
:101D600000000041221C000014083E08140008086E
:101D70003E0808000050300000000808080808006D
:101D80000060600000002010080402003E51494538
:101D90003E0000427F40000042615149460021411F
:101DA000454B31001814127F100027454545390076
:101DB0003C4A494930000171090503003649494947
:101DC0003600064949291E0000363600000000563C
:101DD00036000000081422410000141414141400EA
:101DE00000412214080002015109060032497941DC
:101DF0003E007E1111117E007F49494936003E4167
:101E0000414122007F4141221C007F494949410054
:101E10007F09090901003E4149497A007F08080805
:101E20007F0000417F4100002040413F01007F08CA
:101E3000142241007F40404040007F020C027F009E
:101E40007F0408107F003E4141413E007F0909099F
:101E500006003E4151215E007F091929460046498E
:101E60004949310001017F0101003F4040403F00EE
:101E70001F2040201F003F4038403F0063140814DB
:101E80006300070870080700615149454300007F5F
:101E9000414100000204081020000041417F000081
:101EA00004020102040040404040400000010204DE
:101EB00000002054545478007F484444380038448B
:101EC00044442000384444487F0038545454180097
:101ED000087E090102000C5252523E007F080404A1
:101EE000780000447D4000002040443D00007F1009
:101EF0002844000000417F4000007C041804780062
:101F00007C08040478003844444438007C141414D9
:101F10000800081414187C007C08040408004854C5
:101F200054542000043F444020003C4040207C00AA
:101F30001C2040201C003C4030403C00442810281D
:101F400044000C5050503C004464544C4400000881
:101F50003641000000007F0000000041360800000C
:101F60000804081008000000881F00080000002076
:101F7000180000006C010008A01F000818000020D5
:101F8000C8060000880100080000000000000000F2
:101F900001000000100000000000000000127A00A4
:0400000508000131BD
:00000001FF
